:020000040800F2
:1000000000300020DD020008AB400008713D000810
:10001000A9400008971F0008F54C000800000000E8
:10002000000000000000000000000000AF400008D9
:100030001F20000800000000AD400008B14000088B
:10004000F7020008F7020008F7020008F7020008AC
:10005000F7020008F7020008F7020008F70200089C
:10006000F7020008F7020008F7020008991F0008CD
:10007000F7020008A51F0008F7020008B11F0008DA
:10008000BD1F0008C91F0008F7020008F70200089A
:10009000F7020008F7020008F7020008F70200085C
:1000A000F7020008F7020008F7020008F70200084C
:1000B000F7020008F702000800000000F70200083D
:1000C000F70200080000000000000000F70200082E
:1000D00000000000F7020008E94C0008F7020008E1
:1000E000F7020008F702000800000000000000000E
:1000F0000000000000000000000000000000000000
:1001000000000000000000000000000000000000EF
:100110000000000000000000F7020008F7020008DD
:1001200000000000000000000000000000000000CF
:1001300000000000000000000000000000000000BF
:10014000F7020008F702000800000000F7020008AC
:10015000F7020008F7020008F7020008F70200089B
:10016000F7020008F702000800000000000000008D
:10017000000000000000000000000000000000007F
:1001800000000000F702000800F002F800F096F806
:100190000AA090E8000C82448344AAF10107DA45E2
:1001A00001D100F08BF8AFF2090EBAE80F0013F09E
:1001B000010F18BFFB1A43F001031847D455000084
:1001C00004560000103A24BF78C878C1FAD8520704
:1001D00024BF30C830C144BF04680C6070470000C1
:1001E0000023002400250026103A28BF78C1FBD840
:1001F000520728BF30C148BF0B6070476E2900F01E
:10020000A582702900F0EF83662905F02282652916
:1002100005F01F82672905F01C82612905F01B8209
:1002200003681B0A28BF41F08001692900F052824F
:10023000642900F04F82752900F04C826F2900F08C
:100240007C83782900F0BB83E92900F01783E42937
:1002500000F01483F52900F01183EF2900F0798371
:10026000F82900F0BA830368DB0928BF41F0800158
:10027000632901F0FD80732901F00281E32901F077
:100280000D81F32901F01281002070471FB505F0A0
:10029000DBF99DE8030000F085F901F061F9040045
:1002A0000020002105F0BAF9401C60600020002108
:1002B00005F09EF9E0601FBD10B510BD01F022F9F8
:1002C0001146FFF7E3FF05F0BFF801F0FFF903B4B3
:1002D000FFF7F2FF03BC01F02FFA00000948804746
:1002E00009480047FEE7FEE7FEE7FEE7FEE7FEE718
:1002F000FEE7FEE7FEE7FEE704480549054A064B30
:10030000704700003141000889010008000000200A
:1003100000300020002000200020002070B5A0FB4D
:100320000140B4F1805170F1000024BF002070BD85
:10033000204600F007F805001CBF214600F022FC13
:10034000284670BD70B5064600F010F9056806F144
:100350000B0020F00704B4429CBF002070BD2B4668
:100360006A68BAB11068A04210D304F1080188424B
:100370003CBF5068586007D351681019416011683C
:10038000091B016058601460101D70BD134652684F
:10039000002AE7D12146284600F0F0F80028DED1F7
:1003A00070BD70B50446051F00F0E0F80068002C31
:1003B00014BF446870BD002C18BFAC423CBF20463F
:1003C0006468F8D301680A18AA4218BF456003D1CF
:1003D0002A6805461144016028684119A1421CBFE2
:1003E0006C6070BD6168696021680844286070BDF8
:1003F00053EA020C00F069802DE9F04B4FF0000643
:10040000002B1FBFB3FA83F503FA05F424FA05F6AF
:100410005E4012BF1643B2FA82F502FA05F4C5F146
:1004200020051EBF22FA05FC44EA0C04203556EADA
:10043000044C4FEA144418BF641C4FF000084FF0FE
:100440000009904271EB030C39D3002919BFB1FAAE
:1004500081F701FA07F6B0FA80F700FA07F6C7F15C
:1004600020071EBF20FA07FC46EA0C062037B6FB21
:10047000F4FCA7EB0507103F07F01F0BCBF120069C
:100480000CFA0BFB2CFA06F644BFB3460026202FCD
:10049000A4BF5E464FF0000B5BEA060C08BF4FF0AE
:1004A000010B19EB0B09ABFB027C48EB0608C01BE8
:1004B00006FB02CC0BFB03CC71EB0C01C1E70B4636
:1004C000024641464846BDE8F08B13B54FF00000A8
:1004D0004FF00001AFF30080BDE81C407047000002
:1004E0007CB51D4616460C00009001D02044401EED
:1004F000074B7B442A4669460190304600F03FF99D
:1005000005461CB10020694600F04CF928467CBD28
:10051000B902000004F006BF4FF0000200B5134618
:1005200094469646203922BFA0E80C50A0E80C5013
:10053000B1F12001BFF4F7AF090728BFA0E80C50C4
:1005400048BF0CC05DF804EB890028BF40F8042BBD
:1005500008BF704748BF20F8022B11F0804F18BF2A
:1005600000F8012B7047704770477047004870478C
:100570002C030010704770477047704738B5044629
:100580000A4600206946AFF30080002808BF38BD46
:1005900002460099204600F01BFB012038BD0120D7
:1005A00000F0A8BFF8B5AFF30080054600200C4668
:1005B000102000BF0646A819A0420DD93246694650
:1005C0000020AFF30080070008BF00F093FF009801
:1005D000A04218BF0546C419FFF7C8FF05600746CB
:1005E000F01D20F007004619284600F00AF8B44232
:1005F00008BFF8BDA21B31463868BDE8F84000F0DE
:10060000E7BA00210160C0E901107047102070476F
:1006100070B5044685690068C10601D5302600E042
:100620002026C00707D070BDD4E90121304690478D
:10063000206A401C20626D1EF6D570BD70B5044660
:1006400085690078C00707D170BDD4E90121202059
:100650009047206A401C20626D1EF6D570BD096867
:100660004A0501D540B27047C905FCD500B27047B4
:1006700009684A0501D5C0B27047C905FCD580B2EA
:10068000704770B50C460546012A05D028788006CB
:1006900000D5EA69002302E0012305E05B1C9342D8
:1006A00002D2E05C0028F9D1A869E618C01AA86156
:1006B000286A184428622846FFF7AAFF04E0D5E913
:1006C000012114F8010B9047B442F8D32846FFF7F4
:1006D000B5FF70BD2DE9F04106460024106875296C
:1006E000314616A510D0FFF7BAFF002802DA4042C3
:1006F00013A507E031688A0701D512A502E0490772
:1007000004D511A5012401E0FFF7B2FF00210A2260
:1007100006F1240709E0B0FBF2FCB0FBF2F302FBA8
:100720001C00303078541846491C0028F3D1234669
:100730002A463046BDE8F04100F0A9BA00000000AA
:100740002D0000002B00000020000000116802684E
:10075000006A530501D508700AE0D30501D5088069
:1007600006E0130603D5C217C1E9000200E00860E5
:100770000120704701694A1C02610878704700B582
:100780008FB0CDE901310021059105497944CDE9CA
:1007900003101146684600F031F90FB000BD0000AB
:1007A000E5FFFFFF0A6802F8010B0A607047D1E914
:1007B00000239A4202D2531C0B6010707047000055
:1007C0002DE9FF5F15468A460446DFF8AC80F84401
:1007D0000027D8E900103E46CDE9001010E03AF8B5
:1007E00016106A4602A800F065FE411C07D0217869
:1007F000890603D5E269391891420DD80744761C61
:100800002078800602D5E069B84205DDAE42E6DB1D
:100810003AF816000028E2D1A069C01BA06120466A
:10082000FFF7F6FED8E90010CDE90010002017E030
:100830003AF818106A4602A800F03CFEB0F1FF3FFB
:1008400081460BD000250DF1080B05E0D4E901210C
:100850001BF8050090476D1C4D45F7D308F10100CA
:10086000B0428046E4DB206A384420622046FFF72D
:10087000E5FEBDE8FF9F0000C24E00002DE9F041FB
:100880008046D21D22F007020025D2E90002F52998
:1008900015A614D0011E72F1000106DA0023D0EB78
:1008A000030063EB020211A608E0D8F800108B07E2
:1008B00001D50FA602E0490701D50EA60125114674
:1008C000002408F1240704E000F09CF930323A5586
:1008D000641C50EA0102F7D12B46324621464046BD
:1008E000BDE8F04100F0D3B9000000002D00000089
:1008F0002B0000002000000030B4002100F124048F
:1009000008E002F00705D208303542EA4372DB08FE
:100910006554491C52EA0305F3D10468002310A270
:10092000250707D5A40600D421B1C46901230DA26F
:10093000641EC46130BC00F0AAB910B5044621465B
:100940001068FFF795FE02462046BDE810400023E0
:10095000D2E7D21D22F00701D1E90023CCE7000045
:100960000000000030000000F0B40D4601880905C9
:1009700002D5214C7C4402E01F4C7C440E34002103
:1009800000F1240608E002F00F071209E75D42EAD1
:1009900003721B097754491C52EA0307F3D102780A
:1009A0000023120704D5702D06D009B1022311349B
:1009B0002246F0BC00F06BB901231034F8E770B5A3
:1009C00004460D4621461068FFF752FE02462946AE
:1009D0002046BDE870400023C6E7D21D22F0070381
:1009E000D3E90023C0E70368126843F020030360E3
:1009F0000823C3610023B7E7244D00002DE9F05F11
:100A0000894604464FF0000ADFF874B1FB44C0F891
:100A100020A02046E1688847002874D0252806D009
:100A2000D4E901219047206A401C2062F1E70026AA
:100A30005F462046E16888472028054607DB312DC0
:100A400005D2781910F8200C08B10643F1E7B00779
:100A500001D526F00406C4F81CA00027C4F818A08D
:100A60002A2D09D0284604F061FA38B304EB870830
:100A7000303DC8F8185019E059F8041B204604EB23
:100A800087029161E1688847012F054618D1E06926
:100A9000002820DA26F020061DE0D8F8180000EB28
:100AA000800005EB40003038C8F818002046E168A7
:100AB0008847054604F03AFA0028EED1012F0AD003
:100AC0002E2D08D12046E16888477F1C0546022F5D
:100AD00046F02006C4DBA069002803DA404246F055
:100AE0000106A061F00701D026F010066C2D0BD096
:100AF000682D09D04C2D39D06A2D35D0742D35D0C4
:100B00007A2D33D016E038E0E1682F46204688473A
:100B1000B842054609D16C2F26D04FF48060E168B9
:100B2000064320468847054604E06C2F1AD04FF450
:100B3000807006430DB3A5F14100192802D8203575
:100B400046F400664A462946204626604E46FFF790
:100B500055FB80B101280BD0F61D26F0070000F1EF
:100B6000080956E74020E4E78020D8E70020D6E7D0
:100B700006F104094DE7284652E7206ABDE8F09FD8
:100B8000B44C00004FF000020429C0F0128010F0B5
:100B9000030C3FF4C3ACCCF1040CBCF1020F18BF42
:100BA00000F8012BA8BF20F8022BA1EB0C01FFF7E6
:100BB000B5BC5FEAC17C24BF00F8012B00F8012B13
:100BC00048BF00F8012B704700487047240300100D
:100BD000034640688C46002818BF88423CBF034645
:100BE0004068F8D318681844884207D00CF1030015
:100BF00020F00700001D411A521A0146081D0A6024
:100C0000FFF7CFBB30B5B0F10A024FEA900E71F199
:100C100000034EEA817EB0EB0E0061EB91014FEADA
:100C2000101E4EEA017E10EB0E0041EB11114FEA4F
:100C3000102E4EEA016E10EB0E0041EB11214FEA2F
:100C4000104E4EEA014E10EB0E0041EB11414018E0
:100C500041F100014FEAD00040EA41704FEAD10172
:100C600010EB80054FEA810444EA907444EB0104E0
:100C70006D1944EB0404521BA3414FF0000348BF1D
:100C80000A3200D530BD401C41F1000130BD2DE9D4
:100C9000F0470D4699469246044600F12408016843
:100CA000880604D5E06921F01001216000E00120F0
:100CB000A84201DD471B00E00027A1697A1902EB79
:100CC0000900081AA0612078C00602D42046FFF768
:100CD0009FFC002608E0D4E901211AF8060090479D
:100CE000206A401C761C20624E45F4DB2078C0064A
:100CF0000AD52046FFF78CFC06E0D4E9012130201C
:100D00009047206A401C2062381EA7F10107F4DCDE
:100D100007E0D4E9012118F805009047206A401C3B
:100D20002062281EA5F10105F3DC2046FFF786FCB2
:100D30002078000602D50220BDE8F0870120FBE7FD
:100D400070472DE9FF4F0C461E464FF0FF378BB022
:100D5000D2E90001DDF860800A908A46C1F30A55A5
:100D600005B93D46002108464FF00000BAF1000FDA
:100D700000F4400005DA00EB80004FF4400101EA86
:100D800050004FEA9059B9F1010F00DDB9460A98B9
:100D900050EA4A000ED044F61050A5F2FF35454304
:100DA0002F14B8F1000F1ED07542291E1EDDC9F1A7
:100DB00000021CE0B8F1010F4FF0000001D030211B
:100DC00003E0F24305E02154401CB042FBDB304617
:100DD0000022002121540B99C1F80880C1E90020AC
:100DE0000FB0BDE8F08FBD1B6D1CDEE74A4600DA90
:100DF000694206A800F0F8FB06AB93E8070003ABD6
:100E000083E8070050460A9900F0FDFC8DE80700D2
:100E1000A0F500501F3800900398002D0ADD42F223
:100E20001F014A460844002303A90390684600F0C6
:100E300066FF09E0A0F500504A461F38002303A9C9
:100E40000390684600F070FF8DE807000004000C76
:100E500003D04FF0FF30410800E01046B8F1000F1A
:100E600003D00022009215461EE0751E05D4FFF740
:100E7000C9FE303262556D1EF9D5B34601220843D2
:100E800002D000227F1C04E02078302801D100220B
:100E90007F1E002A099784D01DE0112D07DAFFF785
:100EA000B1FE303262556D1C50EA0102F5D10843A3
:100EB00002D00098C8B10EE00021681E05E0235C56
:100EC000625C63542254401E491C8142F7DBAB46EE
:100ED000A81B401E0990002004F80B000B98099AEB
:100EE000C0F80880C0E9002B7AE711264FF000080F
:100EF00057E72DE9F04F88460446D21D22F007013E
:100F000091B0D1E90001CDE90A0103F0F5FE0246F6
:100F10000B98C00F01D02D2007E02068810701D574
:100F20002B2002E0202101EAC000032A099001D011
:100F3000072A05DB03464146204600F015FB0BE17E
:100F40002078800601D5E06900E00620B8F1650F41
:100F5000814606D0B8F1660F18D0B8F1670F70D18E
:100F600031E00020B9F1110F009001DB112301E005
:100F700009F101030AAA01A90CA8FFF7E2FEDDE9C5
:100F80000C70002609F10105834647E001204B461D
:100F900000904FF000470AAA01A90CA8FFF7D1FE64
:100FA000DDE90DB00C995D46002610B909F101008C
:100FB0000D18B9EB050003D4C0F1FF3609F10105A6
:100FC000A5EB09002BE0B9F1010F01DA4FF001099F
:100FD0000020B9F1110F0090484601DD112300E017
:100FE00003460AAA01A90CA8FFF7ABFEDDE90C70C5
:100FF0004D4600268346207800070AD4AB4500DA28
:101000005D4601A8012D04DD411911F8011C3029AC
:1010100007D04F4502DA17F1040F04DA01208246A7
:101020000FE06D1EEEE7002F02DCED1B3E4403E0F7
:10103000781CA84200DD7D1CB81B00F1010A4FF0AE
:1010400000472078000703D4AA4501DB4FF0FF3AA0
:101050000021B7F1004F0DF143088DF8431024D063
:1010600002202B23002F01DA7F422D230A21021EAA
:10107000A0F1010000DC5FB197FBF1FC97FBF1F2FE
:1010800001FB1C7C17460CF1300C08F801CDEEE793
:10109000A8F1010003702188090501D5452100E070
:1010A0006521A0F1010800F8011C09980FA9A1EB26
:1010B0000807FF1D00B10120411901EBEA70A16989
:1010C0003844081A401EA0612078C00602D4204689
:1010D000FFF79EFA099828B1D4E901219047206AC8
:1010E000401C20622078C00622D52046FFF790FAE7
:1010F0001EE0002E04DBB34502DD01A8805D00E0A8
:101100003020D4E901219047206A401C2062761CDF
:10111000AAF101005FEA000A0AD100F021FAC068D2
:101120000168405CD4E901219047206A401C20629C
:10113000281EA5F10105DCDC07E0D4E9012118F83F
:10114000010B9047206A401C2062381EA7F101075E
:10115000F3DC2046FFF772FA032011B041E60000ED
:101160002DE9F04F04460D46D21D22F0070089B04C
:10117000D0E900974846394603F0BEFD0246F80F15
:1011800001D02D2307E02068810701D52B2302E041
:10119000202101EAC0038DF820300BB1012000E0CE
:1011A0000020032A824601D0072A04DB2946204674
:1011B00000F0DAF93FE12078800601D40D2500E047
:1011C000E569C7F30A560D2D49DA00214FEA175B8E
:1011D00008464FF00000002F00F4400007DA00EB53
:1011E00080004FF4400100EBD07001EA60008115EF
:1011F000012901DD4FF0FF3100224FEA850CBCF1DF
:10120000180F06D31346ACF118004FF08052C240BD
:1012100003E04FF4801323FA0CF30CF10C0CBCF137
:10122000200F04D3ACF1200C09FA0CF001E007FA0E
:101230000CF000294FF0004801DD18B90FE00ED185
:1012400040450CD319EB02095F4121B9404502D159
:101250009F4329EA0209BBEB175F00D0761C208868
:10126000000502D57B48784402E07A487844193872
:1012700008AA302302F80A30037C0AF10101002E8B
:101280000AF1020A53546A4602DC4FF0300101E0D1
:101290004FF031014FF001088DF8001002D0A6F296
:1012A000FF3603E059EA470100D06B4E002D02DC07
:1012B0002178090704D54FF002082E218DF801107E
:1012C000C44600210BE0C7F303433F01C35C491C44
:1012D0006D1E02F80830052908F1010801DA002D19
:1012E000F1DC00210CE000EB1973491C1B786D1E2A
:1012F000082902F808304FEA091908F1010801DA53
:10130000002DF0DC21688B0602D516E0A8F101085B
:10131000E04505DD02EB080313F8013C302BF5D066
:10132000B8F1000F09DD02EB080313F8013C2E2B86
:1013300003D1090701D4A8F10108002D05DD3E21E4
:1013400002F808106D1E08F10108407C002E02F81A
:10135000080008F1010804DA2D20764202F808009E
:1013600002E02B2002F808000A214FF47A7086422E
:1013700008F101080BDB96FBF0F3303302F808307C
:1013800096FBF0F308F1010800FB136601E0642E00
:101390000CDB642096FBF0F3303302F8083096FB48
:1013A000F0F308F1010800FB136601E00A2E06DBEA
:1013B00096FBF1F0303002F8080008F1010896FBC6
:1013C000F1F001FB1060303002F80800A16908F16B
:1013D000010808EB050202EB0A00081AA061207858
:1013E000C00602D42046FFF713F9216A08AE01EBCC
:1013F0000A00206204E0D4E9012116F8010B9047AD
:10140000BAF1010AF7D22078C00602D52046FFF7CC
:10141000FFF86E4609E016F8010B3E280FD0D4E91C
:1014200001219047206A401C2062B8F10108F2D2E5
:101430002046FFF703F909B00320BDE8F08F206ACA
:101440002844206203E0D4E90121302090476D1E3A
:10145000EBD3F8E77E44000002FCFFFF10B54369C0
:1014600013B1AFF3008001E0FFF70BF9012010BDCD
:10147000127800F124010A7000224A700122EDE77F
:1014800011684FF0FF32E9E710B5436913B1AFF3CC
:10149000008001E0FFF794F9012010BD128800F1EF
:1014A000240182840022C2840122EDE711684FF0FA
:1014B000FF32E9E770B516460C46054600F048F8DD
:1014C000036893F80101012806D0FF2C0FD8185D9E
:1014D00068B101202C7070BDD3F807013246214657
:1014E00003F2071303442846BDE8704018474FF045
:1014F000FF3070BD10B500F0F7F8BDE8104000F007
:10150000EEB870477546FFF75FFBAE4605006946CB
:10151000534620F00700854618B020B5FEF7ECFED4
:10152000BDE820404FF000064FF000074FF00008E4
:101530004FF0000B21F00701AC46ACE8C009ACE865
:10154000C009ACE8C009ACE8C0098D46704700008E
:1015500010B500F005F8001D10BD00BFC14000002F
:1015600000487047440300102DE9F0411F4604462F
:1015700003260168072A01F4006004DB08B116A500
:1015800005E016A503E008B115A500E015A521F0BA
:1015900010002060A069C01EA0610FB1401EA061B4
:1015A0002046FFF735F84FB1D4E90121384690477E
:1015B000206A401C2062C01C206206E0206AFAE714
:1015C000D4E9012115F8010B9047761EF8D2204688
:1015D000FFF734F8BDE8F0814E414E006E616E00B9
:1015E000494E4600696E66002DE9F0478146164671
:1015F0008AB0354878440DC88DE80D0032487844EB
:10160000801C03AC0DC884E80D0041F69B300844F3
:10161000372190FBF1F290FBF1F5A5F1800501FB7C
:1016200012041B3C02D56442012000E00020DFF8D8
:1016300098A080460027FA44AAF1BE0A0EE0E0070F
:101640000AD03246684607EB470101230AEB8101C5
:1016500000F06AFB8DE8070064107F1C002CEED1BF
:10166000194F7F44AE3F19E0E80715D007EB04108F
:101670000DF1180A90E80E008AE80E00C068F042EA
:1016800001D1981908903246012306A903A800F059
:101690004BFB03AB83E807006D10641C002DE3D106
:1016A0004FF0010332466946B8F1000F03A802D09B
:1016B00000F025FB01E000F037FBC9E90001C9F8A3
:1016C00008200AB0BDE8F0878041000010B504464C
:1016D000AFF300802046BDE81040FEF7F8BD0028BB
:1016E00001D000F029B8704710B5012805D00021BD
:1016F00003A000F027F8012010BD09A1F8E70000C1
:1017000053494752544D454D3A204F7574206F66EA
:101710002068656170206D656D6F72790000000052
:101720003A2048656170206D656D6F727920636F36
:10173000727275707465640001491820ABBEFEE7D3
:101740002600020070B505460C460A2000E06D1C1C
:1017500000F052F835B128780028F8D102E0641C76
:1017600000F04AF814B120780028F8D1BDE87040A4
:101770000A2000F041B800004FF0013C50F8042B63
:1017800051F8043B9A4221D1A2EB0C03934313EA94
:10179000CC1317D150F8042B51F8043B9A4215D1C1
:1017A000A2EB0C03934313EACC130BD150F8042B98
:1017B00051F8043B9A4209D1A2EB0C03934313EA7C
:1017C000CC13DBD04FF00000704700BFD01A01BA35
:1017D000B1FA81F101F0180122FA01F0CB40C1F118
:1017E0002001DBB2C0B2C01A2CFA01F3D11A914326
:1017F00011EAC311E6D1704708B569468DF80000BB
:101800000320ABBE08BD5FEA400C08BF91F0000F9B
:101810004FEA8C234FEAC12243EA51514FEA1C5050
:1018200018BF00F5F0404FEA300018BF41F000410A
:101830005FEA6C5C00F02980BCF1FF3F08BF40F01C
:1018400080407047130C06BF12044FF0100C4FF08D
:10185000000C130E04BF12020CF1080C130F04BF8E
:1018600012010CF1040C930F04BF92000CF1020C56
:10187000D30F04BF52000CF1010C11464FF00002CF
:10188000A0F11F00A0EB0C00704711F0004F08BF43
:10189000704731F000413FF4D5AF0B0C06BF09048F
:1018A0004FF0100C4FF0000C0B0E04BF09020CF1AE
:1018B000080C0B0F04BF09010CF1040C8B0F04BFC3
:1018C00089000CF1020CCB0F04BF49000CF1010C94
:1018D000CCF12003A0EB0C0022FA03F302FA0CF285
:1018E00041EA030100F10100704720F07F4C80EADB
:1018F000030023F07F47ACEB070303F57C5300F0B4
:10190000004003F1FF032DE980494FEA154B09B46C
:101910004FEA144325EA0B4E24EA03480FF204264B
:1019200006EB132749083E785FEA320203FB06679D
:10193000C7F5000707FB06F64FEA54374FEAD646CD
:1019400006F1020607FB066CCCF1005C4FEA1C476F
:101950002CEA074C07FB06F40CFB06F504EB1546D6
:101960004FEA961634BF00204FF000404FEAD137BF
:1019700006FB07FC4FEA1C4C0CFB0BF7D21B03FBCE
:101980000CF761EB07010CFB0EF7B0EB074072EBB5
:1019900017420CFB08F734BFA2EB0742B2EB074239
:1019A00061EB17414FEA0C444FEA910706FB07FC35
:1019B0004FEA1C4C0CFB0BF7B0EBC74072EB5732F5
:1019C00003FB0CF734BFA2EBC742B2EBC74261EB9B
:1019D00057310CFB0EF7B0EBC70072EB57720CFBE4
:1019E00008F734BFA2EBC702B2EBC70261EB577135
:1019F000039F4FEA816141EA921104EBCC044FEA64
:101A0000D1374FEA826206FB07FC42EA90124FEAA6
:101A100080604FEA1C4C0CFB0BF7D21B03FB0CF74E
:101A200061EB07010CFB0EF7B0EB074072EB1742BE
:101A30000CFB08F734BFA2EB0742B2EB074261EBA5
:101A400017414FEA8C554FEA910704EB9C2406FBA3
:101A500007FC4FEA1C4C0CFB0BF7B0EBC74072EBDA
:101A6000573203FB0CF734BFA2EBC742B2EBC742BD
:101A700061EB57310CFB0EF7B0EBC70072EB5772FE
:101A80000CFB08F734BFA2EBC702B2EBC70261EB55
:101A9000577115EB4C254FEA816141EA92114FEAEB
:101AA00082624FEAD13742EA901206FB07FC44F10A
:101AB00000044FEA80604FEA1C4C0CFB0BF7D21B72
:101AC00003FB0CF761EB07010CFB0EF7B0EB0740D3
:101AD00072EB17420CFB08F734BFA2EB0742B2EBE4
:101AE000074261EB174115EB1C154FEA813141EAC2
:101AF00092414FEA823242EA90424FEA80304FEA06
:101B00000C7644F1000448EA03434EEA0B484FF0D8
:101B1000000EB2EB080C71EB030724BF6246394696
:101B20004EEB0E0E4FF0000B0018524149414BEBAB
:101B30000B0BB2EB080C71EB03077BF1000B24BF1E
:101B4000624639464EEB0E0E4FF0000B0018524124
:101B500049414BEB0B0BB2EB080C71EB03077BF12C
:101B6000000B24BF624639464EEB0E0E51EA0207C7
:101B700018BF46F0010616EB0E7655F1000254F13F
:101B8000000103D5BDE88901BDE80088BDE88901F1
:101B9000BDE80048B619524141EB0101A3F1010330
:101BA000704780807F7E7D7C7B7A797877767675CA
:101BB0007473727171706F6E6E6D6C6C6B6A6A6942
:101BC0006868676666656464636362616160605FDC
:101BD0005F5E5E5D5D5C5C5B5B5A5A595958585755
:101BE00057565655555554545353525252515150BD
:101BF00050504F4F4F4E4E4D4D4D4C4C4C4B4B4B10
:101C00004A4A4A4949494848484747474746464655
:101C10004545454444444443434343424242424190
:101C20004141002B9C4630D477002BD01CB54FEAA5
:101C3000370703B44FF010004FF01001BAF1000F56
:101C400006D0BCF1000FDCBF40F0080040F00801F6
:101C50004FF000000FBCBDE810400BF1010BBBF1D1
:101C6000010F08BF5FEA170722BF12F1010211F14D
:101C700001014FF0004143F1000300F0004043EA4E
:101C800000007047F9D35708D0E746EA064613F13B
:101C9000400F4FEA16461FDD13F1200FDFBF16433A
:101CA0000A46002120335B42BED0C3F1200746EA3A
:101CB000064602FA07F74FEA164646EA0706C3F158
:101CC000200722FA03F201FA07F721FA03F14FF095
:101CD000000342EA0702A7E746EA020646EA06468A
:101CE0004FEA164646EA0106BCBF46EA0646360CEF
:101CF0004FF000034FF000024FF0000194E72DE990
:101D0000804C9A46934670B491E8380007C831EA8F
:101D1000400C48BF34EA430C03D5FFF7E6FDFFF75C
:101D200080FFF0BCBDE8008C2DE9804C9A469346BC
:101D300070B491E8380007C810F0804F08BF13F066
:101D4000804F03D100F005F8FFF76BFFF0BCBDE852
:101D5000008C20F07F4780EA030023F07F4C07EBE4
:101D60000C03A3F57C5300F00040A3F1FE0392F0B6
:101D7000000F00F0B38095F0000F00F077802DE9A0
:101D800001494FEA11404FEA144621EA004800FB9E
:101D900006FC24EA064708FB06F607FB08F800FBEA
:101DA00007F718EB06484CEB164C4FEA124B18EBB2
:101DB00007484FEA15464CEB174022EA0B4E0BFB47
:101DC00006FC25EA06470EFB06F607FB0EFE0BFB9C
:101DD00007F71EEB064E4CEB164C4FF000061EEBC1
:101DE000074E4CEB174B18EB0B0840F1000018EBBB
:101DF0000E0B58EB000840F100008F1A4FF0000165
:101E00003CBFC943661B14BFB5EB040C00213CBFAB
:101E1000C943F61B4FEA17444EEA8E0E27EA0445E3
:101E20004FEA1C4704FB07622CEA074C05FB07F747
:101E30000CFB05F604FB0CFC16EB074642EB1742C5
:101E400016EB0C4642EB1C421BEB060658EB02025B
:101E5000414146EA9E0601D5BDE80189B6195241C5
:101E600041EB0101A3F10103BDE801894FEA1445EB
:101E70004FEA114724EA054621EA074C05FB07F41F
:101E800006FB07F70CFB06F105FB0CFC11EB074109
:101E900044EB17444FEA124711EB0C4144EB1C444E
:101EA00022EA074C05FB07F206FB07F70CFB06F6D8
:101EB00005FB0CFC16EB074642EB174216EB0C46F3
:101EC00042EB1C456A1854F1000148BF7047B6192F
:101ED000524141EB0101A3F10103704795F0000F5E
:101EE00037D04FEA11424FEA144721EA024624EA6A
:101EF000074C02FB07F106FB07F70CFB06F402FB9D
:101F00000CFC14EB074441EB17414FEA154714EB67
:101F10000C4441EB1C4125EA074C02FB07F506FB8C
:101F200007F70CFB06F602FB0CFC16EB074645EB2D
:101F3000174516EB0C4645EB1C42121951F10001F6
:101F400048BF7047B619524141EB0101A3F10103AB
:101F500070474FEA14454FEA114724EA054621EA43
:101F6000074C05FB07F106FB07F70CFB06F24FF0E9
:101F7000000605FB0CFC12EB074241EB174112EB8C
:101F80000C4251EB1C4148BF7047921841EB0101D4
:101F9000A3F101037047FEE7014800F08BB8000091
:101FA00014020010014800F085B80000580200102B
:101FB000014800F07FB80000D0010010014800F097
:101FC00079B800009C020010014800F073B80000CE
:101FD000E0020010054A016811441422B1FBF2F13D
:101FE000890001640249C16370470000F8FFFDBF2A
:101FF0000000024030B590F840500124AC40C56B61
:102000006C60046863604368102B036803D09960B8
:102010000068C26030BD9A600068C16030BD704722
:1020200072B6FEE710B590F821100022022905D003
:102030000421816380F82020012010BD01680B6815
:1020400023F00E030B6001680B6823F001030B60A3
:1020500090F84030C46B012101FA03F3636080F80B
:10206000211080F82020002010BD10B590F821101C
:102070000024022903D004218163012418E00168AF
:102080000A6822F00E020A6001680A6822F0010262
:102090000A6090F84020C36B012101FA02F25A60F5
:1020A00080F82110002180F82010416B01B1884791
:1020B000204610BDF0B4C16B0D6801680C68066C59
:1020C000042202FA06F32B420FD063070DD50B68EA
:1020D0009B0603D40B6823F004030B6090F84010B8
:1020E0008A40C16B4A60C16A1BE0022303FA06F70B
:1020F0002F424FF0000C4FF0010216D0A70714D565
:102100000C68A40605D40C6824F00A040C6080F85E
:10211000212090F840108B40C16B4B6080F820C0AC
:10212000816A002918D0F0BC08470823B3402B422D
:1021300012D0230710D50B6823F00E030B6090F824
:102140004010C36B02FA01F15960826380F82120CC
:1021500080F820C0016BE4E7F0BC704770B5040064
:1021600021D0022084F821002268116843F6F07023
:102170008143D4E901031843D4E903352B431843C1
:1021800063691843A3691843E3691843084310605F
:102190002046FFF71FFF0020A063012184F82110D3
:1021A00084F8200070BD012070BD70B5044690F821
:1021B0002000002501280CD0012084F8200094F88C
:1021C00021600020012E06D084F820000225284638
:1021D00070BD022070BD022684F82160A0632068D3
:1021E000066826F0010606602046FFF703FFE06A56
:1021F00000282068016802D041F00E0106E041F09D
:102200000A0101602068016821F004010160206872
:10221000016841F001010160D9E700002DE9FC4FA0
:10222000DFF884A1002301250AF1040B03244FF0F9
:102230000F0C0BF1040EB0E005FA03F73A406ED034
:102240004E68012E05D0022E03D0112E01D0122E81
:1022500017D1D0F808905E0004FA06F829EA0809B8
:102260000096D1F80C8008FA06F848EA0908C0F888
:1022700008804668BE430F79C7F300179F40374375
:102280004760C6684FEA430804FA08F7BE4301975F
:102290008F6807FA08F73743C7604E68022E01D0EF
:1022A000122E10D1DE0800EB86060096366A5F0714
:1022B0004FEAD7690CFA09F7BE430F6907FA09F725
:1022C0003743009E37620668019FBE430F7907F0CF
:1022D000030707FA08F7374307604E68F6005BD537
:1022E000324EB76947F00107B761B66923F00307BB
:1022F00006F0010600962E4E3E44B146B6689F0792
:102300004FEA17780CFA08F7BE43B0F1904F04D0AB
:10231000284FB84204D101270DE000270BE03BE035
:10232000254FB84201D1022705E0244FB84201D120
:10233000032700E0052707FA08F73743C9F80870B4
:10234000DAF800605746D1F8048096435FEAC8384F
:1023500000D516433E60DBF800605F46D1F804808C
:1023600096435FEA883800D516433E60DEF8006089
:102370007746D1F8048096435FEAC82800D5164313
:102380003E60094F0C373E68D1F8048096435FEAFF
:10239000882800D516433E605B1C0E683246DE403E
:1023A0007FF44AAFBDE8FC8F0004014000100240FA
:1023B000000001400004004800080048000C0048EC
:1023C0000AB18161704781627047000001488068EE
:1023D00070470000480000100248816802781144EC
:1023E0008160704748000010074810B5016841F04F
:1023F00010010160032000F06FF8002000F006F8E3
:1024000000F024F8002010BD0020024070B50D4DF2
:1024100004464FF47A712878B1FBF0F00A49096854
:10242000B1FBF0F000F02EFD48B9102C07D20022CD
:102430002146501E00F030F800206C6070BD012075
:1024400070BD000048000010540000100A4882B01F
:10245000816941F001018161816901F0010100910F
:10246000C16941F08051C161C06900F080500090A5
:10247000072002B000F030B800100240002809DB4D
:1024800000F01F02012191404009800000F1E0208E
:10249000C0F8001170470000F0B40E4B1B680C46EA
:1024A000C3F30223C3F10705042D00D90425191D28
:1024B000072901D2002300E0DB1E012606FA05F100
:1024C000491E214099409E40761E16403143F0BC83
:1024D00002F02ABC0CED00E0064900F00702086893
:1024E0004FF6FF03184040EA0220034A10430860F9
:1024F000704700000CED00E00000FA05BFF34F8FBD
:1025000005480168054A01F4E06111430160BFF329
:102510004F8F00BFFDE700000CED00E00400FA055E
:102520002DE9F84F0446006800265C4DC0036ED5C7
:10253000E869C00008D4E86940F08050E861E869C3
:10254000012600F08050009055480168C90512D45A
:102550000168804641F480710160FFF737FF07464C
:1025600005E000BFFFF732FFC01B642835D8D8F85C
:102570000000C005F6D5286A10F4407053D0A18839
:1025800001F4407181424ED0286A4FF4803191FAB3
:10259000A1F2B2FA82F29700424A4FF001081744C2
:1025A00020F44070C7F8008491FAA1F1B1FA81F1EA
:1025B00002EB81010023C1F800342862C00732D049
:1025C000FFF704FF074641F2883A4FF0020907E09F
:1025D000FFF7FCFEC11B514502D90320BDE8F88F6F
:1025E00099FAA9F1B1FA81F141F040014846B8EBFE
:1025F000511F01D129680CE090FAA0F1B1FA81F1E4
:1026000041F04001B0EB511F02D1296A01E015E011
:10261000696A99FAA9F0B0FA80F000F01F0008FA90
:1026200000F21142D4D0286A616820F44070084357
:1026300028621EB1E86920F08050E8612078C00768
:1026400005D0286BA16820F0030008432863207898
:10265000800605D5286BE16820F010000843286348
:102660002078000605D5E86A216920F4F87008434F
:10267000E8622088C00405D5286B616920F4807069
:10268000084328632088400405D5286BA16920F4FD
:102690008050084328630020A0E70000001002409B
:1026A00000700040000042422DE9F0470F4605004F
:1026B00069D04A4E306800F00700B84209D230684D
:1026C00020F0070038433060306800F00700B8425F
:1026D00059D12878424C800705D56068A96820F058
:1026E000F000084360602878C0073DD06968012089
:1026F00001290DD0022923D05FF0020393FAA3F23F
:10270000B2FA82F242F02002520904D0226803E0B9
:102710004FF40033F2E7626A93FAA3F3B3FA83F358
:1027200003F01F03984002422DD0606820F00300A0
:1027300008436060FFF74AFE804641F288390CE0AA
:102740004FF00073DAE700BFFFF740FEA0EB08018F
:10275000494502D90320BDE8F0876068696800F048
:102760000C00B0EB810FEFD1306800F00700B842E9
:102770000BD9306820F0070038433060306800F033
:102780000700B84201D00120E5E72878400705D5C9
:102790006068E96820F4E06008436060287800071A
:1027A00006D56068296920F4605040EAC100606085
:1027B00000F04EF86168F02292FAA2F201F0F00106
:1027C000B2FA82F2D140074A515CC840064908601B
:1027D00006480068FFF71AFE0020BCE70020024010
:1027E000001002407A560008540000104C000010FF
:1027F00008480949006849684FF4E06292FAA2F279
:1028000001F4E061B2FA82F2D140044A515CC8405E
:102810007047000054000010001002408A56000863
:1028200008480949006849684FF4605292FAA2F2D8
:1028300001F46051B2FA82F2D140044A515CC840BE
:102840007047000054000010001002408A56000833
:10285000164A10B55168164801F00C03042B20D01D
:10286000082B1ED14FF4701494FAA4F401F47013E1
:10287000B4FA84F4E3400F4CD26AE45C0F2393FA79
:10288000A3F302F00F02B3FA83F3DA40094B1033DB
:10289000C9039A5C06D500231946FDF7A9FDA0FBE4
:1028A000040110BD0448A4FB000110BD001002404B
:1028B00000127A005A56000800093D002DE9F84F31
:1028C000050071D02878FC4EC0074FF0010425D0D8
:1028D00070686704C0F38100012807D07068C0F3F6
:1028E000810002281BD17068C00318D597FAA7F0A1
:1028F000B0FA80F040F02000400901D0306800E0DC
:10290000706A97FAA7F1B1FA81F101F01F0104FA98
:1029100001F1084265D068680028D2D061E068689B
:10292000B0F5803F0BD010B1B0F5A02F17D03068B4
:1029300020F480303060306820F4802002E030687D
:1029400040F480303060F06AA96820F00F0008433E
:10295000F062686820B3FFF739FD80460AE030680E
:1029600040F480203060EAE7FFF730FDA0EB08007C
:10297000642871D897FAA7F0B0FA80F040F02000F0
:10298000400901D0306800E0706A97FAA7F1B1FA07
:1029900081F101F01F0104FA01F10842E4D020E0C6
:1029A000FFF714FD804607E0C2E000BFFFF70EFD11
:1029B000A0EB08006428DCD897FAA7F0B0FA80F002
:1029C00040F02000400901D0306800E0706A97FABA
:1029D000A7F1B1FA81F101F01F0104FA01F10842F7
:1029E000E4D12878DFF8D48280074FF0000A4FF056
:1029F000020730D570684FF0F80B10F00C0F07D0BD
:102A00007068C0F38100022827D17068C00324D405
:102A100097FAA7F0B0FA80F040F02000400901D00A
:102A2000306800E0706A97FAA7F1B1FA81F101F01D
:102A30001F0104FA01F1084202D02869012877D168
:102A400030689BFAABF220F0F8016869B2FA82F2C2
:102A50009040014331605AE064E1286988B394FAF8
:102A6000A4F0B0FA80F048F82040FFF7AFFC8146B0
:102A700006E000BFFFF7AAFCA0EB090002289AD8E5
:102A800097FAA7F0B0FA80F040F02000400901D09A
:102A9000306800E0706A97FAA7F1B1FA81F101F0AD
:102AA0001F0104FA01F10842E4D030689BFAABF24E
:102AB0006969B2FA82F220F0F80091400843306070
:102AC00025E0FFE794FAA4F0B0FA80F048F820A0DF
:102AD000FFF77CFC814605E0FFF778FCA0EB0900DE
:102AE0000228CCD897FAA7F0B0FA80F040F0200086
:102AF000400901D0306800E0706A97FAA7F1B1FA96
:102B000081F101F01F0104FA01F10842E4D12878B3
:102B100000076CD5A869A8B394FAA4F0B0FA80F0C5
:102B200008EB8000C0F88044FFF750FC814607E0C6
:102B3000A4E100BFFFF74AFCA0EB090002289ED8E1
:102B400097FAA7F0B0FA80F040F06000B4EB501FA5
:102B500001D130680BE097FAA7F0B0FA80F040F0AE
:102B60006000B7EB501F01D1306A00E0706A97FA3D
:102B7000A7F1B1FA81F101F01F0104FA01F210424C
:102B8000D8D034E0FFE794FAA4F1B1FA81F108EB70
:102B90008101C1F880A4FFF719FC814606E000BF5F
:102BA000FFF714FCA0EB090002289AD897FAA7F0C7
:102BB000B0FA80F040F06000B4EB501F01D13068F3
:102BC0000BE097FAA7F0B0FA80F040F06000B7EBA6
:102BD000501F01D1306A00E0706A97FAA7F1B1FA8C
:102BE00081F101F01F0104FA01F21042D8D12878D6
:102BF000400768D5F0694FF00009C00009D4F069BA
:102C000040F08050F061F0694FF0010900F0805011
:102C100000902B480168C90512D4016841F4807105
:102C20000160FFF7D3FB834606E000BFFFF7CEFB52
:102C3000A0EB0B00642875D821480068C005F5D5C5
:102C4000E86801280AD008B1052811D0306A20F0C0
:102C500001003062306A20F0040002E0306A40F087
:102C600001003062E86868B3FFF7B0FB83460DE00F
:102C7000306A40F004003062F0E700BFFFF7A6FBC7
:102C8000A0EB0B0141F2883081424BD897FAA7F0B4
:102C9000B0FA80F040F04000B4EB501F01D1306832
:102CA00013E097FAA7F0B0FA80F040F04000B7EBDD
:102CB000501F09D1306A08E0001002400000424273
:102CC000007000400CE040E0706A97FAA7F1B1FA9A
:102CD00081F101F01F0104FA01F21042CED02DE083
:102CE000FFF774FB834607E0FFF770FBA0EB0B01D7
:102CF00041F28830814215D897FAA7F0B0FA80F0F7
:102D000040F04000B4EB501F01D130680CE097FA5E
:102D1000A7F0B0FA80F040F04000B7EB501F02D1AE
:102D2000306A01E083E0706A97FAA7F1B1FA81F1A5
:102D300001F01F0104FA01F21042D5D1B9F1000FE0
:102D400003D0F06920F08050F061E86980B37168C9
:102D5000C1F38101022977D04FF080714F00022822
:102D6000504609D091FAA1F1B1FA81F148F8210059
:102D7000FFF72CFB05465DE0894691FAA1F1B1FA17
:102D800081F1C24648F82100FFF720FB804605E0AC
:102D9000FFF71CFBA0EB0800022848D897FAA7F021
:102DA000B0FA80F040F02000400902D0306801E025
:102DB00066E0706A97FAA7F1B1FA81F101F01F019C
:102DC00004FA01F10842E3D1D5E90810084371681B
:102DD00021F474110843706099FAA9F0B0FA80F0F8
:102DE0004AF82040FFF7F2FA054604E0FFF7EEFA52
:102DF000401B02281BD897FAA7F0B0FA80F040F0E9
:102E00002000400901D0306800E0706A97FAA7F10D
:102E1000B1FA81F101F01F0104FA01F10842E5D095
:102E20002EE000BFFFF7D2FA401B022802D9032090
:102E3000BDE8F88F97FAA7F0B0FA80F040F02000D4
:102E4000400902D0306801E00BE0706A97FAA7F100
:102E5000B1FA81F101F01F0104FA01F10842E1D158
:102E60000EE00128E4D070682A6A00F480319142B3
:102E700004D1696A00F47010884201D00120D7E7BC
:102E80000020D5E710B5401EB0F1807F01D30120AE
:102E900010BD4FF0E02460610F21601701F044FF86
:102EA0000020A06107202061002010BD70477047FE
:102EB00030B590F83C20012A37D0012280F83C2020
:102EC000CA688C6822F4407222434C6822F4806203
:102ED00022430C6822F4006222430C6922F48052DF
:102EE00022434C6922F4005222438C6A22F480422D
:102EF00022430C8B22F4702242EA04420C4D0468F7
:102F00000023AC420CD18D8C22F4700242EA0552AF
:102F1000CD6922F080722A43096A22F000720A43C6
:102F2000626480F83C30002030BD022030BD0000DB
:102F3000002C0140F0B590F83C20012A2CD001244F
:102F400080F83C40022280F83D2003685A689D6862
:102F5000124EB34203D122F470074A683A4322F07A
:102F600070070A683A435A600268B24208D0B2F168
:102F7000804F05D00A4B9A4202D00A4B9A4204D1A4
:102F8000896825F080031943916080F83D40002155
:102F900080F83C100846F0BD0220F0BD002C014036
:102FA000000400400040014010B5040003D094F834
:102FB0003D0010B107E0012010BD002084F83C0066
:102FC000204600F023F8022084F83D00211D2068EF
:102FD00001F0C6F8012084F8480084F83E0084F827
:102FE0003F0084F8400084F8410084F8420084F8EF
:102FF000430084F8440084F8450084F8460084F8CF
:10300000470084F83D00002010BD00002DE9F04786
:1030100086B0054614216846FDF77EFA2C68002626
:10302000344802210122032380274FF400784FF413
:1030300000694FF0200AB4F1804F31D0DFF8B8C0FA
:1030400064452AD1C46944F00204C461C46904F02F
:1030500002040594446944F480244461406901AC4D
:10306000009184E80E0000F48020CDE90410694648
:103070002248FFF7D3F8234C2148E4E80206214810
:10308000A4E8C00744F81C69FFF768F808B1FEF728
:10309000C7FF2C6365622C62656206B0BDE8F087ED
:1030A000C46944F00104C461C46904F001040594D6
:1030B000446944F400344461406900F400300590F0
:1030C00004208DE80F0069464FF090400492FFF70E
:1030D000A5F80B480C4C2838E4E802060A48A4E896
:1030E000C00744F81C69FFF739F808B1FEF798FFEC
:1030F000EC62D1E7001002400004004000040048E8
:103100003000024058020010140200102DE9F04176
:103110009C460446DDE9067390F8480015460E46C5
:10312000022840D094F84800012806D1BCF1000FD5
:1031300000D1BFBB022084F848003C483C493D4ACE
:10314000B5F5006F3CD009DCB5F5807F10D0B5F542
:10315000007F18D0B5F5806F5FD126E0B5F5805FB0
:1031600039D0B5F5005F41D0B5F5804F55D149E074
:10317000226A31499162226A3049D162216A086328
:103180002268206A09E0D4F824E0CEF82810616AA9
:10319000CA62616A08632268606A61464C32FFF75E
:1031A00004F870B30120BDE8F081D4F828E0CEF82F
:1031B0002810A16ACA62A16A08632268A06AECE7C3
:1031C000D4F82CE0CEF82810E16ACA62E16A0863FC
:1031D0002268E06AE1E7D4F830E0CEF82810216BED
:1031E000CA62216B08632268206BD6E7626B1449C0
:1031F0009162626B1349D162616B08632268606BF4
:10320000CBE70AE0A26B10499162A26B0F49D16231
:10321000A16B08632268A06BBFE720683E43866409
:103220002068C1682943C1600020BCE73F43000813
:10323000A94200080743000893430008A943000877
:103240004141000851410008B3430008C943000848
:103250007CB5069C250A6D1CCDE90045FFF756FF9D
:103260007CBD7047704770472DE9F041054690F8E6
:103270003C000C46012836D0012085F83C008AB37A
:10328000042A42D02868082A51D0D4E90023E168F2
:10329000066A26F480560662C669076A26F44076F6
:1032A00046EA03234FF6FF7606EA013123F4704322
:1032B00019434FF4204627F4204306EA02321A430A
:1032C000C16102622868C16921F44061C161286856
:1032D000C169A26841EA0221C161002085F83C0071
:1032E000BDE8F08101E00220FAE7D4E90012E368CA
:1032F000286801F031FA2868816921F00C018161A8
:1033000028688169A26811430FE0D4E90012E368DC
:10331000286801F05FFA2868816921F440618161C1
:1033200028688169A26841EA02218161D5E7D4E970
:103330000027267B016A21F480710162C169036A5A
:1033400021F00301394321F0F00731074FF42066E3
:1033500047EA116123F4206306EA02221A43C1619D
:1033600002622868C16921F00C01C1612868C16945
:10337000A2681143B0E710B5040003D094F83D00F3
:1033800010B107E0012010BD002084F83C00204669
:1033900000F022F8022084F83D00211D206800F092
:1033A000DFFE012084F8480084F83E0084F83F00E6
:1033B00084F8400084F8410084F8420084F8430017
:1033C00084F8440084F8450084F8460084F84700F7
:1033D00084F83D00002010BD704700002DE9F04149
:1033E0000D00044613D0042D16D0082D19D00C2D35
:1033F0001CD0102D1DD094F8430000BF94F8471046
:10340000022819D0022917D0012818D0A7E094F873
:103410003E0094F84410F3E794F83F0094F8451008
:10342000EEE794F8400094F84610E9E794F841007C
:10343000E4E794F84200E1E70220BDE8F0810129C9
:1034400066D10AB9002B63D14849494E494F022041
:103450007DB1042D1ED0082D2DD00C2D3CD0102D6B
:103460003DD084F8430000BF84F847000C2D43D1C1
:1034700069E084F83E0084F84400606A8162606A12
:10348000C662606A07632168606A3431FEF78DFEA8
:10349000F0BB27E084F83F0084F84500A06A816211
:1034A000A06AC662A06A07632168A06A3831FEF785
:1034B0007CFE68BB1BE084F8400084F84600E06AAC
:1034C0008162E06AC662E06A07632168E06A3C31B3
:1034D000FEF76BFEE0B931E084F84100C4E784F800
:1034E0004200C1E72068C16841F4007103E0206830
:1034F000C16841F48061C16001222946206800F062
:1035000073FE1D49206888420AD0B0F1804F00E068
:1035100025E005D01949884202D01949884207D1CF
:103520008168184A1140062906D0B1F5803F03D0C2
:10353000016841F00101016000207EE72068C16858
:1035400041F40061D7E7206B8162206BC662206B7B
:1035500007632168206B4031FEF727FE08B1012088
:103560006BE72068C16841F48051C4E7034200085A
:10357000714200083F430008002C01400004004055
:103580000040014007000100F0B587B00446142157
:103590006846FCF7C1FF13492068884220D11248D1
:1035A000416941F4003141614069022400F4003076
:1035B00005904FF4E060002503268DE87100062099
:1035C0004FF09047049069463846FEF727FEA00268
:1035D0008DE871000B20049069463846FEF71EFE08
:1035E00007B0F0BD002C01400010024070B5044649
:1035F00090F83C000D4601280BD0012084F83C00D7
:103600000C2A45D007DC5AB1042A1BD0082A78D1ED
:103610002CE0022070BD102A4ED0142A71D15DE03A
:10362000206800F0E1FE2068816941F008018161B5
:103630002068816921F004018161206881692A691B
:10364000114311E0206800F013FF2068816941F404
:10365000006181612068816921F480618161206855
:1036600081692A6941EA022181614AE0206800F00B
:103670003FFF2068C16941F00801C1612068C1694C
:1036800021F00401C1612068C1692A69114311E078
:10369000206800F06DFF2068C16941F40061C161DC
:1036A0002068C16921F48061C1612068C1692A690B
:1036B00041EA0221C16124E0206800F08FFF206808
:1036C000416D41F0080141652068416D21F0040120
:1036D00041652068416D2A69114311E0206800F0BE
:1036E000AFFF2068416D41F4006141652068416D84
:1036F00021F4806141652068416D2A6941EA022117
:103700004165002084F83C0070BD10B5040003D072
:1037100094F83D0010B107E0012010BD002084F8AE
:103720003C00204600F022F8022084F83D00211DD4
:10373000206800F015FD012084F8480084F83E0060
:1037400084F83F0084F8400084F8410084F8420087
:1037500084F8430084F8440084F8450084F8460067
:1037600084F8470084F83D00002010BD38B50546B8
:103770000068124988421FD11148816941F40061F3
:1037800081618069104C00F4006000900D48206059
:103790001020606000208021C4E9020149002161FD
:1037A0008900C4E90510E0612046FEF7D7FC08B1A6
:1037B000FEF736FC2C62656238BD0000002C01402B
:1037C0000010024058000240D001001070477047BE
:1037D00010B50446022269B1042912D0082917D075
:1037E0000C291CD0102921D094F84300012824D0A2
:1037F000012010BD94F83E000128F9D184F83E2044
:103800001DE094F83F000128F2D184F83F2016E033
:1038100094F840000128EBD184F840200FE094F8A0
:1038200041000128E4D184F8412008E094F84200E6
:103830000128DDD184F8422001E084F843200122F0
:10384000206800F0D1FC15492068154A884207D04D
:10385000904205D0134B984202D0134B984203D1AB
:10386000436C43F4004343642068884207D0B0F1BE
:10387000804F04D00D49884201D0904207D1816821
:103880000B4A1140062906D0B1F5803F03D00168EC
:1038900041F001010160002010BD0000002C01403A
:1038A0000040014000440140004801400004004045
:1038B000070001007047704770B5044690F83C005F
:1038C000012812D0012584F83C50022084F83D00E4
:1038D000204600F0E9FE01004FF0000007D084F818
:1038E0003D5084F83C00012070BD022070BD21686D
:1038F000CA6822F04002CA602168CA6822F4804285
:10390000CA6084F83D5084F83C00002070BD7047C8
:103910007047704770470000014908607047000019
:10392000580000102DE9F04102680446D069116882
:10393000936840F60F0528424FF0000505D1860632
:1039400078D58E0676D5616EF2E0824F03F00106DF
:103950000F4037437ED0C70709D0CF0507D50127D1
:103960001762D4F8802042F00102C4F88020820758
:103970000AD5DA0708D0276802223A62D4F88020F4
:1039800042F00402C4F8802042070AD5DA0708D0C2
:10399000236804221A62D4F8802042F00202C4F89C
:1039A000802002070CD501F02002324308D02368A2
:1039B00008221A62D4F8802042F00802C4F880205D
:1039C00002050BD54A0109D523684FF400621A623B
:1039D000D4F8802042F02002C4F88020D4F880205F
:1039E000002A2FD0800605D5880603D5616E09B15F
:1039F00020468847D4F8800021688968490602D4A7
:103A000010F0280F20D0204601F018F820688168B7
:103A1000490614D5816821F040018160206F70B1A2
:103A20004D494163206FFEF720FB00280AD0206F2C
:103A3000416B01E00EE02046BDE8F041084720461A
:103A4000FFF76AFFBDE8F0812046FFF765FFC4F885
:103A50008050F7E7276E2026012F58D1C70656D58C
:103A6000CF0654D5102010622268906840062DD5EC
:103A7000216F086840680004000CE3D0B4F85830A7
:103A80008342DFD9A4F85A008869202817D010682B
:103A900020F4807010602068816821F0010181604D
:103AA0002068816821F040018160E6672566206812
:103AB000016821F010010160206FFEF7B3FAB4F83D
:103AC0005800B4F85A10401A81B21CE0B4F85800FB
:103AD000B4F85A10401A81B2B4F85A000028B1D094
:103AE0000029AFD0106820F49070106020688268C0
:103AF00022F001028260E66725666566206802683A
:103B000022F0100202602046FFF703FF9AE7C70287
:103B100009D55B0207D54FF4801010622046BDE83E
:103B2000F041FFF7F7BE030605D50B0603D5A16EDE
:103B3000002980D186E7400684D5480682D51168E1
:103B4000204621F040011160A667A56600F00EF93D
:103B500078E70000200100042F49000810B5040098
:103B600002D0A06F10B107E0012010BD002084F842
:103B70007400204600F026F82420A0672068016821
:103B800021F001010160204600F078FF0128ECD00F
:103B9000606A10B1204600F038FE2068416821F4C8
:103BA000904141602068816821F02A01816020688D
:103BB000016841F0010101602046BDE8104000F0BD
:103BC00088BE0000F0B587B0064614216846FCF7B1
:103BD000A3FC2A49306888424ED12948C16941F482
:103BE0000031C161C16901F400310591416941F4BD
:103BF000802141614069694600F4802005901820C9
:103C000000900220019001200290032003900720E1
:103C100004901C48FEF702FB1C4D1B480024C5E91C
:103C200000048027C5E9024720202C61C5E9054032
:103C30002846EC61FEF792FA08B1FEF7F1F9356714
:103C40006E621148124D143001C5102091C5104804
:103C500045F810496C61AC61EC61FEF77FFA08B180
:103C6000FEF7DEF9F5660022114626206E62FEF7A9
:103C700013FC2620FEF702FC07B0F0BD0044004014
:103C800000100240000400486C0002409C0200103A
:103C9000E002001030B4C36F202B18D1A1B19AB14B
:103CA00090F87430012B12D0012380F87430002377
:103CB000036603685C68240203D51C6844F08064D2
:103CC0001C6030BC00F07CBF012030BC704702207B
:103CD000FBE770477047000070B50446806F2028EE
:103CE0003CD169B362B394F87400012836D0012046
:103CF00084F87400E164A4F85020A4F85220002550
:103D0000C4F880502120A067E06ED8B114498162C8
:103D1000E16E14481346C862E16E13480863E06E12
:103D200045632668E16C06F12802E06EFEF73DFA75
:103D300040B11020C4F8800004F8745F2020606057
:103D4000012070BD21684020086284F8745020680A
:103D5000816841F080018160002070BD022070BD4B
:103D6000054A0008334A0008434900087047704775
:103D7000FEE70000194808B5416941F001014161C1
:103D80004069002200F00100009011460B20FEF770
:103D900083FB0B20FEF772FB002211460D20FEF77D
:103DA0007BFB0D20FEF76AFB002211460F20FEF779
:103DB00073FB0F20FEF762FB002211461020FEF776
:103DC0006BFB1020FEF75AFB002211461120FEF774
:103DD00063FBBDE808401120FEF750BB0010024015
:103DE000F0B587B014216846FCF796FB1A48416984
:103DF00041F480014161416901F48001059141690B
:103E000041F400314161416901F40031059141699A
:103E100041F4802141614069104F00F480204FF44B
:103E200070760590002231463846FEF7C9FA012522
:103E30000B4800240095CDE9010469468002FEF795
:103E4000EDF90096CDE90154694638460394FEF732
:103E5000E5F907B0F0BD0000001002400004004882
:103E60000000121010B596B00024129413941C2177
:103E700068461494FCF750FB2C2107A8FCF74CFB78
:103E80002F482E49C0E900144FF6FF71C0E90241E6
:103E9000046144618461FFF738FC08B172B6FEE743
:103EA0001020CDE912048020149012A92448FFF7B5
:103EB00041F808B172B6FEE76020CDE90004029433
:103EC000039404940594002269461D480694FFF764
:103ED0008DFB08B172B6FEE7042269461848FFF769
:103EE00085FB08B172B6FEE7082269461448FFF761
:103EF0007DFB08B172B6FEE70C2269461048FFF759
:103F000075FB08B172B6FEE70794089409944FF464
:103F100000500A94CDE90B400003CDE90E400D940A
:103F2000109407A906481194FEF7C2FF08B172B6B3
:103F3000FEE70348FFF728FB16B010BD002C014038
:103F40006800001010B58CB0142104A8FCF7E4FA46
:103F5000002420480A940B9409940094019402943C
:103F60004FF080410394C0E900144FF6FF71C0E99F
:103F7000024104618461FFF717F808B172B6FEE7E9
:103F80001448FFF7F8F908B172B6FEE70620CDE94C
:103F9000040404A90F48FFF78FFC08B172B6FEE7CE
:103FA000099409A90B480B94FEF7C4FF08B172B637
:103FB000FEE70A2000900120CDE9010408226946AD
:103FC00004480394FFF750F9002801D072B6FEE7C9
:103FD0000CB010BDB400001010B58CB0142104A8B2
:103FE000FCF79AFA002421480A940B94099400944F
:103FF000019402941C490394C0E900144FF6FF7128
:10400000C0E9024104618461FEF7CEFF08B172B6D7
:10401000FEE71648FFF7AFF908B172B6FEE70620D3
:10402000CDE9040404A91148FFF746FC08B172B6B3
:10403000FEE7099409A90D480B94FEF77BFF08B130
:1040400072B6FEE70A2000900120CDE901040C229F
:10405000694606480394FFF707F9002801D072B6B5
:10406000FEE70CB010BD000000040040000100108D
:104070000C4810B50A4901604FF4E131416000215C
:1040800081600C22C160C0E904128161C1610162DA
:104090004162FFF763FD002801D072B6FEE710BD54
:1040A000004400404C010010FEE7FEE770477047F7
:1040B000FEF792B930B597B028216846FCF72CFA84
:1040C00014210AA8FCF728FA1C210FA8FCF724FAEF
:1040D00001204FF4A02100248DE813000490022554
:1040E0000004CDE907504FF4E01009906846FEF750
:1040F000E5FB08B172B6FEE70F20CDE90A054FF4E3
:104100008060CDE90C4002210AA80E94FEF7CCFA9B
:1041100008B172B6FEE74FF4805014940F900FA8C8
:10412000FEF7FEF9002801D072B6FEE717B030BDE9
:104130000248016841F470010160704788ED00E0B9
:1041400010B5406A012180F83D10FEF7AFFE10BDAA
:1041500010B5406A012180F83D10FEF7A8FE10BDA1
:10416000F0B502681B4B1C4F4FF0804C984203D0B7
:10417000604501D0B84203D122F070044A6822435E
:10418000164C174D174E984209D0604507D0B842DB
:1041900005D0A04203D0A84201D0B04203D122F4FE
:1041A0004077CA683A434F6922F080023A4302607E
:1041B0008A68C2620A688262984205D0A04203D02F
:1041C000A84201D0B04201D10969016301214161D6
:1041D000F0BD0000002C0140000400400040014000
:1041E000004401400048014010B501F01F030121C7
:1041F000046A99408C430462016A9A401143016247
:1042000010BD10B5446A0121626A824207D121774C
:10421000806938BB84F83E1084F8441022E0A26A1A
:10422000824208D1022222778069D8B984F83F10EF
:1042300084F8451016E0E26A824208D1042222770F
:10424000806978B984F8401084F846100AE0226B3F
:10425000824207D108222277806918B984F8411078
:1042600084F847102046FEF7FDFF0020207710BDA0
:1042700010B5446A616A814201D101200DE0A16A52
:10428000814201D1022008E0E16A814201D104208B
:1042900003E0216B814201D1082020772046FEF700
:1042A000E2FF0020207710BD10B5446A0121626A48
:1042B000824205D121778069F8B984F83E101CE06C
:1042C000A26A824206D1022222778069A8B984F8C4
:1042D0003F1012E0E26A824206D10422227780690E
:1042E00058B984F8401008E0226B824205D10822B8
:1042F0002277806908B984F841102046FFF766FAF2
:104300000020207710BD10B5446A616A814201D156
:1043100001200DE0A16A814201D1022008E0E16A9A
:10432000814201D1042003E0216B814201D10820A8
:1043300020772046FFF74BFA0020207710BD10B5FC
:10434000446A0121626A824203D1217784F83E10D7
:1043500019E0A26A824204D10220207784F83F103B
:1043600011E0E26A824204D10420207784F84010F0
:1043700009E0226B824204D10820207784F84110A2
:1043800001E084F83D102046FEF76BFF0020207707
:1043900010BD10B5406A016A896911B9012180F820
:1043A0003D10FFF787FA10BD10B5406AFFF783FA9A
:1043B00010BD10B5406A816B896911B9012180F87F
:1043C0003D10FFF7A4FA10BD10B5406AFFF7A0FA40
:1043D00010BD10B5846842EA032224F47F440A43E6
:1043E0002243826010BD0000F0B5026A22F0010293
:1043F0000262056A43688269184C25F00205224072
:104400000C6822F0030214438A68164E2A43144DA6
:10441000154FDFF858C0A84205D0B04203D0B842CB
:1044200001D0604506D122F0080ECA6842EA0E02A9
:1044300022F00402A84205D0B04203D0B84201D015
:10444000604505D14D6923F440731D438B692B43AF
:1044500043608461496841630262F0BD8FFFFEFFE3
:10446000002C014000400140004401400048014050
:1044700030B5026A22F010020262046A426883695F
:10448000164D2B400D6823F4407343EA052524F0B4
:1044900020038C6843EA0413114CA04207D1CC6876
:1044A00023F0800343EA041323F0400308E00D4C9B
:1044B000A04205D00C4CA04202D00C4CA04207D127
:1044C0004C6922F4406242EA84028C6942EA840226
:1044D0004260856149688163036230BDFF8FFFFEE2
:1044E000002C0140004001400044014000480140D0
:1044F00030B5026A22F480720262046A4268C369BB
:10450000164D2B400D6823F003031D4324F4007364
:104510008C6843EA0423124CA04207D1CC6823F4F0
:10452000006343EA042323F4806308E00D4CA042B7
:1045300005D00D4CA04202D00C4CA04207D14C69D2
:1045400022F4405242EA04128C6942EA04124260A8
:10455000C5614968C163036230BD00008FFFFEFF83
:10456000002C01400040014000440140004801404F
:1045700030B5026A22F480520262046A4268C3695A
:10458000114D24F400542B400D6823F4407343EA8A
:1045900005238D6844EA05340C4DA84208D00C4D23
:1045A000A84205D00B4DA84202D00B4DA84204D121
:1045B0004D6922F4804242EA85124260C361496833
:1045C0000164046230BD0000FF8FFFFE002C01403B
:1045D00000400140004401400048014030B5026AFB
:1045E00022F480320262046A4268436D0F4D2B4010
:1045F0000D681D4324F400330C8943EA04430C4C3A
:10460000A04208D00B4CA04205D00B4CA04202D0D7
:104610000A4CA04204D14C6922F4803242EA0422BE
:104620004260456549688165036230BD8FFFFEFFCA
:10463000002C01400040014000440140004801407E
:1046400030B5026A22F480120262046A4268436D45
:10465000104D24F400142B400D6843EA05230D8906
:1046600044EA05540C4DA84208D00C4DA84205D090
:104670000B4DA84202D00B4DA84204D14D6922F443
:10468000802242EA8522426043654968C16504622E
:1046900030BD0000FF8FFFFE002C014000400140B4
:1046A000004401400048014010B50468A26822F0AF
:1046B00070034A681A431E4B1A400B681343A360E9
:1046C0004A6812F00F0F30D11211082A2DD2DFE8FC
:1046D00002F02C2C2C2C0B2127040B69D1E9022190
:1046E0000068FFF776FE20E00A68052A10D002680D
:1046F000136A146A24F00104146202689469096957
:1047000024F0F00444EA01119161006803620CE0B6
:10471000012010BD0A698968006800F00BF804E008
:104720000A698968006800F043F8002010BD0000A5
:10473000F8FFFEFF10B5036A046A24F00104046266
:10474000846924F0F00444EA021423F00A020A43C4
:104750008461026210BD000070B5046A24F0010497
:1047600004628469056A0F4EB04208D0B0F1804FF0
:1047700005D00D4EB04202D00C4EB04203D124F011
:104780000304144301E044F001041A0724F0F00488
:1047900044EA126225F00A0301F00A01194382611A
:1047A000016270BD002C0140000400400040014047
:1047B00010B5036A23F0100303628369046A23F4CB
:1047C000704343EA023224F0A00343EA01118261FC
:1047D000016210BD30B5046A24F0100404628469DB
:1047E000056A24F4407444EA022222F470444FF62D
:1047F000FF7202EA03322243A02425F0A00304EA58
:10480000011119438261016230BD90F82410C9077B
:1048100006D001684A68836A22F400321A434A606B
:1048200090F82410890706D501684A68C36A22F403
:1048300080321A434A6090F82410490706D501686F
:104840004A68036B22F480221A434A6090F82410CD
:10485000090706D501684A68436B22F400421A43EF
:104860004A6090F82410C90606D501688A68836BEF
:1048700022F480521A438A6090F82410890606D5E3
:1048800001688A68C36B22F400521A438A6090F868
:104890002410490611D501684A68036C22F480127D
:1048A0001A434A60016CB1F5801F06D101684A685D
:1048B000436C22F4C0021A434A6090F8241009069F
:1048C00006D501684A68806C22F4002202434A60DF
:1048D0007047F8B500260446C0F88060FDF776FD05
:1048E0000546206800686FF07E47000708D52B4614
:1048F00000224FF400112046009700F0A3F960B9A0
:104900002068006840070AD52B4600224FF480013A
:104910002046009700F096F908B10320F8BD20204A
:10492000A067E067266684F874600020F8BD10B5C3
:10493000406A0021A0F85A10A0F85210FEF7ECFFD0
:1049400010BD70B5446AA06FE56F216889684FF0AB
:104950000006090606D5212804D1A4F85260204695
:1049600000F084F820688068400606D5222D04D126
:10497000A4F85A60204600F061F8D4F8800040F0B6
:104980001000C4F880002046FEF7C6FF70BD10B5C9
:104990000146406A896920291BD00021A0F85A10DD
:1049A00001680A6822F480720A6001688A6822F04D
:1049B00001028A6001688A6822F040028A60202130
:1049C000C167016E012904D101680A6822F0100252
:1049D0000A60016E012902D0FFF77BF910BDB0F823
:1049E0005810FEF796FF10BD10B5406A016E012900
:1049F00002D0FFF76FF910BDB0F858104908FEF764
:104A000088FF10BD10B50146406A896920290DD084
:104A10000021A0F8521001688A6822F080028A60A2
:104A20000068016841F04001016010BDFFF79EF988
:104A300010BD10B5406AFFF79AF910BD01680A6809
:104A400022F490720A6001688A6822F001028A608A
:104A5000016E012904D101680A6822F010020A607F
:104A60002021C167002101664166704701680A681C
:104A700022F0C0020A6020218167704770B50446A9
:104A800080682169E2690843616900251143226851
:104A900008431168444B1940014311602068416884
:104AA000E26821F4405111434160A169206A084342
:104AB00021688A6822F4306202438A603B49206898
:104AC000884210D13A48006B10F0030011D0012841
:104AD00005D0022805D003280DD102210CE00421C5
:104AE0000AE0082108E03349884202D0324988426E
:104AF00001D1002100E01021E3694FF400422F486A
:104B00004FF6EF76934227D1092941D2DFE801F031
:104B100005080E400B4040402200FDF769FE04E00E
:104B2000FDF77EFE01E0FDF793FE90B34100606863
:104B300001EB5001B1FBF0F080B2A0F11001B142E5
:104B400026D84FF6F0710140C0F3420001432068BF
:104B5000C16023E01046E9E7092919D2DFE801F036
:104B600005080E180B1818181A00FDF741FE04E08E
:104B7000FDF756FE01E0FDF76BFE50B1616800EBFA
:104B80005100B0FBF1F080B2A0F11001B14203D9A5
:104B9000012503E01046F1E72168C8600020606647
:104BA000A066284670BD0000F369FFEF00380140A1
:104BB00000100240004400400048004000127A000B
:104BC00070B54165A0F8582000250446C0F8805013
:104BD0002220E067206FD8B117498162216F174802
:104BE0001346C862216F16480863206F4563666DDF
:104BF000216832462431206FFDF7D7FA40B11020EA
:104C0000C4F8800004F8745F20206060012070BD4B
:104C100084F874502068016841F480710160206854
:104C2000816841F0010181602068816841F04001A4
:104C30008160002070BD00008F490008E94900082C
:104C4000434900082DE9F0479A4617460E460446A8
:104C50004FF000094FF02008089D39E0681C37D05C
:104C6000FDF7B4FBA0EB0A00A84222D80DB32068E0
:104C7000016849072CD5C069C043000528D42168C4
:104C80004FF4006008622068016821F4D07101606F
:104C90002068816821F001018160C4F87880C4F83F
:104CA0007C80C4F8808000BF84F874900320BDE845
:104CB000F0872068016821F4D07101602068816864
:104CC00021F001018160C4F87880C4F87C80EBE7B2
:104CD0002068C06936EA000004D00020B842BDD088
:104CE0000020E4E70120F9E70148FEF71BBE0000C1
:104CF0004C010010FEE7704703B401984100009892
:104D000050EAC12018BF04204A0D18BF40F001002E
:104D100040F2FF72B2EB515F08BF40F00200012881
:104D200008BF052002B070470907090E002804DB00
:104D300000F1E02080F80014704700F00F0000F14F
:104D4000E02080F8141D704708B500210091012271
:104D5000694600F06BF808B1009808BD4FF0FF30CD
:104D600008BD03B5012201A900F076F8012802D0A0
:104D70004FF0FF300CBD01980CBD0000174910B575
:104D80000A6A1268136823F0010313600A68136A41
:104D900041F21114234207D1136AA410234203D114
:104DA000136823F0010313600B6800225A620A6A39
:104DB00012681368DB07FCD15060094A4FF4602089
:104DC0005060086A0068026842F0010202600868E8
:104DD000016841F00101016010BD00006800001091
:104DE00000000240002804D0D0E901128A4201D814
:104DF000881A7047C068801A0844704770B5051E4D
:104E000012DD10210120FBF789FA04000CD00121EA
:104E10002846FBF783FAA0606060E5602060002808
:104E2000204602D1FBF7BDFA002070BD70B500240A
:104E3000836809E013F8015B0D55C6680568641CBA
:104E40002E449E4200D12B46521E02D345689D42FD
:104E5000F0D18360204670BDF0B5174604460D467C
:104E600000264368FFF7BEFFE168081AB8420CDC71
:104E70000020F0BD15F8010B03F8010BE168206874
:104E80000144994200D10346761CBE42F2DB304613
:104E90006360F0BD10B583680DE004689C4201D1E9
:104EA000C368234444685B1EA34202D14FF0FF3025
:104EB00010BD8C5C1C70521EEFD28360087810BD50
:104EC0000146074A4FF0FF30914207D10968002997
:104ED00004D0CA68002A01D0086810477047000053
:104EE0006400001070B50D4606461C210120FBF73A
:104EF00015FA041E14D03EB13046FFF77FFF094972
:104F0000E160206000280BD03DB12846FFF776FF16
:104F1000054921616060002802D0002060612046C0
:104F200070BD0000494D0008634D000830380A2864
:104F300001D2012070470020704700000FB41048D4
:104F400030B50068A1B00025A8B125AB8021684626
:104F5000249AFBF7C5FA05466C4609E0022000F0EA
:104F60006BF82078064900F017FA401CF6D0641C54
:104F700020780028F5D121B0284630BC5DF814FB1C
:104F800060000010F8B507461C4615460E4618206E
:104F9000FBF7D8F9009098B10760C0E90165FDF70B
:104FA00015FA0099C1E90304064C206820B94FF4B2
:104FB0004070FFF723FF206004226946FFF74CFF93
:104FC0000098F8BD5C00001038B5144C002000902B
:104FD000206800B304226946FFF728FFD8B1009883
:104FE000C8B1FDF7F3F90099C96888420ED3FDF7FF
:104FF000EDF90099CA68801A4861486809688847CD
:10500000FDF7E4F900990A691044C8600422694672
:105010002068FFF721FF009838BD00005C000010F9
:105020000349044B0A681860086010467047000086
:10503000640000106000001010B50446FDF7C6F9CA
:10504000044403E0FFF7C0FFFFF755FEFDF7BEF98C
:10505000A042F7D310BD0000F8B57A4C4FF40076AB
:105060007710E06A4FF0FF35002846D176484FF4BC
:1050700096410068B0FBF1F0401E606373A0FFF73B
:105080005DFF3046FFF7BAFE6062C1680268C1F397
:105090008F0308217148FEF7A1F93046FFF7AEFEF5
:1050A000A062C1680268C1F38F030C216C48FEF74F
:1050B00095F9B000FBF746F96AA1E0620988018022
:1050C0006D49606B0968C86200216B48FEF780FB80
:1050D00004216948FEF77CFB08216748FEF778FB4E
:1050E0000C216548FEF774FB4FF4407000903A467F
:1050F0000D216148E36AFEF7ABF86048FBF70AFA56
:105100005F4B0146C21A4F48994222D010DCA94297
:1051100031D019292DD05B4A891816D0B9422AD12D
:10512000417821F0C3014031417000F047FA22E09C
:10513000BA4213D0B24217D05349CA421BD1417868
:1051400041F0030121F0C001EEE7417821F00301B5
:10515000F8E7417821F0C3018031E5E7417821F09B
:10516000030141F0C001DFE7417821F00301891C10
:10517000E8E7FDF7C3F9206B90B1FDF727F9216B44
:1051800088420DD900202F49206304223031606A03
:10519000FFF780FE2B4904223031A06AFFF77AFE28
:1051A000606AC268016811442C4AD26A1268526867
:1051B000524201EB82014160A16ACB680A681A443D
:1051C000274B1B6B1B685B685B4202EB83024A60E8
:1051D0001C4904221C31FFF729FE68B1D4E90712EB
:1051E000881A00D54042482806DA881800EBD070AB
:1051F000401000F0EDF80546124904222031A06A63
:10520000FFF714FE68B1D4E90712881A00D54042AE
:10521000482806DA881800EBD070401000F0D8F863
:105220000546681C0CD0284600F050F9E8052946D0
:1052300001D516A000E018A0BDE8F840FFF77EBE3B
:10524000F8BD0000000000105400001045534C52FF
:105250004620746573740D0A00000000B40000104D
:10526000000100100078666666662C302C007866B7
:105270006666662C300000006800001064000010B4
:105280007E33315B82CECEA400FFFEFF0D0A2E25B9
:105290003032582000000000253032582000000035
:1052A00070B51F4E05464469316800688C4214D1C0
:1052B00081898AB201682046FEF7ECFC216FB4F8C0
:1052C000580009684968401A616D08442968886077
:1052D000296848600020306008E0226FB4F8581058
:1052E00012685268891A626D11444160A06F2028CB
:1052F00014D1E06C20B96868C068FBF723F8E0645B
:105300006868E16CC268FFF791FD060006D0B2B292
:105310002046E16CFEF7E0FC002EF1DC70BD0000E1
:105320005800001070B50446FFF7CAFD0546206816
:10533000806928B908210120FAF7F0FF2168886107
:105340001B2D0AD0681C2068806910D04168F1B11B
:10535000016845EA012101601BE020688069056061
:10536000FDF734F821680A308969486011E0406827
:1053700078B1FDF72BF801462068806942689142B8
:1053800007D90021416020688069006870BD284607
:1053900070BD4FF0FF3070BD70B505460B480C4630
:1053A000814210D1206860B1006918B909E002207B
:1053B000FFF742FE21680A69486829469047401C69
:1053C000F5D0284670BD4FF0FF3070BD6000001072
:1053D0002DE9F0411B4C06464FF0FF3560684FF059
:1053E000000C20B3301A81B2606BA26801EB50014F
:1053F000B1FBF0F3D4E9031002E011434908401C6B
:105400005B1E01D30A28F8D982F48062A260C4E945
:1054100003100A2806D9C4F810C0C1F30805C4F85F
:105420000CC00AE0FCF7D2FF401D206305E0C4F881
:1054300010C0C4F80CC0C4F808C028466660BDE8B7
:10544000F081000000000010FCF7CEFFFEF732FEF6
:10545000FEF7C6FCFEF78EFCFEF704FDFEF708FE25
:10546000FEF770FDFEF7B8FD80221146064800F0F9
:105470000FF806490860FFF7D3FD00BFFFF7A4FD52
:10548000FFF7EAFDFAE700004C01001044000010AD
:1054900070B50B46054611461846FFF723FD04007C
:1054A0000ED06DB16561206881898AB20168284695
:1054B000FEF7F0FB002303A221460348FFF762FD3D
:1054C000204670BD636F6D00A152000870B522497F
:1054D000C2054FF00003A1F13E0401D54B71636199
:1054E000D4E905256E1EB24225D1497981421DD1EC
:1054F000042D30D11848801F4371017841F0080114
:10550000017000214279435C491C1A44427105290B
:10551000F8D311480622801FE16A00F023F8E16AFF
:10552000BDE87040401A4010FFF728BCBDE870404D
:105530000AA0FFF703BD8854521C62614A7952FAEF
:1055400080F048710878810601D4000701D5062053
:1055500000E00420A06170BD3E0000106572722062
:1055600000000000F0B503464FF400700025124E15
:105570001DE000BF13F8014B4FF4006C44F40074BD
:1055800040EA44040120044206D0B78E7F1C8F807D
:105590000F80CD804D8005E08D800D80B78E7F1C03
:1055A000CF804F80400008316045ECD30020521E70
:1055B00092B2DFD20846F0BD000000100B4910B5D2
:1055C0000020C8700B5CCA78401C1A44CA700328BB
:1055D000F8D3064C04222046E16AFFF7C3FFE16AD4
:1055E000BDE81040401A4010FFF7C8BB0000001093
:1055F00010B500290AD00878002807D0054878445B
:10560000FCF7BAF8002801D0002010BD0248784409
:1056100010BD0000C2010000BA01000010B5002951
:105620000AD00878002807D005487844FCF7A4F889
:10563000002801D0002010BD0248784410BD0000B1
:10564000B2010000AA0100004FF04070E1EE100A24
:105650007047FBF74EBCFBF783BD0203040506074A
:1056600008090A0B0C0D0E0F1010010203040506A9
:105670000708090A0B0C0D0E0F10000000000000B7
:1056800000000102030406070809000000000102EF
:10569000030400000000000000000000303132333D
:1056A0003435363738394142434445464030580056
:1056B0003031323334353637383961626364656688
:1056C00040307800040000080000000000000002E4
:1056D000000100001030313233343536373839614B
:1056E0006263646566787000303132333435363742
:1056F00038394142434445465850000002400000BA
:10570000000000A00000000005400000000000C8EC
:10571000000000000C4000000000409C0000000061
:10572000194000000020BCBE000000003440000012
:10573000BFC91B8E00000004B5400000504BCFD005
:105740006607E2CF010000006C4100003E8251AAD2
:10575000DFEEA73401000000D9420000DCB5A0E272
:105760003A301F97FFFFFFFFB4450000FD25A0C89A
:10577000E9A3C14FFFFFFFFFFF3F000000000080D3
:1057800000000000FF3F000000000080000000005B
:10579000EC5800080000001068000000C401000878
:1057A000EC5800080000002000300000E001000874
:1057B00054590008680000101C030000E0010008B4
:1057C0001C00000043000000F8FFFFFF0C00000079
:1057D0000E0000000F0000002E000000100100006D
:1057E00043000000F8FFFFFF0040404040404040C1
:1057F00040404141414141404040404040404040A4
:105800004040404040404040400502020202020247
:105810000202020202020202022020202020202096
:1058200020202002020202020202909090909090AA
:105830001010101010101010101010101010101068
:1058400010101010020202020202888888888888DC
:1058500008080808080808080808080808080808C8
:1058600008080808020202024000000000000000D0
:105870000000000000000000000000000000000028
:105880000000000000000000000000000000000018
:105890000000000000000000000000000000000008
:1058A00000000000000000000000000000000000F8
:1058B00000000000000000000000000000000000E8
:1058C00000000000000000000000000000000000D8
:1058D00000000000000000000000000000000000C8
:1058E00000000000000000000000000001040800AB
:1058F00000000000000000000000000000000000A8
:105900000000000004000000000000000000000093
:105910000000000000000000000000000000000087
:105920000000000000000000000000000000000077
:105930000000000001000000100000000000000056
:1059400000127A00000000000000000000000000CB
:045950000000000053
:040000050800018965
:00000001FF
